{
  "_format": "hh-sol-artifact-1",
  "contractName": "APunkForYouAndMe",
  "sourceName": "contracts/APunkForYouAndMe.sol",
  "abi": [
    {
      "inputs": [],
      "stateMutability": "nonpayable",
      "type": "constructor"
    },
    {
      "anonymous": false,
      "inputs": [
        {
          "indexed": false,
          "internalType": "address",
          "name": "user",
          "type": "address"
        },
        {
          "indexed": false,
          "internalType": "uint256",
          "name": "amount",
          "type": "uint256"
        }
      ],
      "name": "Deposited",
      "type": "event"
    },
    {
      "anonymous": false,
      "inputs": [
        {
          "indexed": false,
          "internalType": "address",
          "name": "addr",
          "type": "address"
        },
        {
          "indexed": false,
          "internalType": "uint256",
          "name": "amount",
          "type": "uint256"
        }
      ],
      "name": "EthClaimed",
      "type": "event"
    },
    {
      "anonymous": false,
      "inputs": [
        {
          "indexed": true,
          "internalType": "address",
          "name": "previousOwner",
          "type": "address"
        },
        {
          "indexed": true,
          "internalType": "address",
          "name": "newOwner",
          "type": "address"
        }
      ],
      "name": "OwnershipTransferred",
      "type": "event"
    },
    {
      "anonymous": false,
      "inputs": [
        {
          "indexed": false,
          "internalType": "address",
          "name": "buyer",
          "type": "address"
        },
        {
          "indexed": false,
          "internalType": "uint256",
          "name": "punkId",
          "type": "uint256"
        }
      ],
      "name": "PunkPurchased",
      "type": "event"
    },
    {
      "anonymous": false,
      "inputs": [
        {
          "indexed": false,
          "internalType": "address",
          "name": "winner",
          "type": "address"
        }
      ],
      "name": "WinnerSelected",
      "type": "event"
    },
    {
      "inputs": [
        {
          "internalType": "address",
          "name": "",
          "type": "address"
        }
      ],
      "name": "addressesToAmountDeposited",
      "outputs": [
        {
          "internalType": "uint256",
          "name": "",
          "type": "uint256"
        }
      ],
      "stateMutability": "view",
      "type": "function"
    },
    {
      "inputs": [
        {
          "internalType": "address",
          "name": "",
          "type": "address"
        }
      ],
      "name": "addressesToClaimedStatus",
      "outputs": [
        {
          "internalType": "bool",
          "name": "",
          "type": "bool"
        }
      ],
      "stateMutability": "view",
      "type": "function"
    },
    {
      "inputs": [
        {
          "internalType": "address",
          "name": "",
          "type": "address"
        }
      ],
      "name": "addressesToPoints",
      "outputs": [
        {
          "internalType": "uint256",
          "name": "",
          "type": "uint256"
        }
      ],
      "stateMutability": "view",
      "type": "function"
    },
    {
      "inputs": [
        {
          "internalType": "uint256",
          "name": "punkId",
          "type": "uint256"
        },
        {
          "internalType": "uint256",
          "name": "amount",
          "type": "uint256"
        }
      ],
      "name": "buyPunk",
      "outputs": [],
      "stateMutability": "nonpayable",
      "type": "function"
    },
    {
      "inputs": [],
      "name": "claim",
      "outputs": [],
      "stateMutability": "nonpayable",
      "type": "function"
    },
    {
      "inputs": [],
      "name": "deposit",
      "outputs": [],
      "stateMutability": "payable",
      "type": "function"
    },
    {
      "inputs": [
        {
          "internalType": "address",
          "name": "referrer",
          "type": "address"
        }
      ],
      "name": "depositWithReferrer",
      "outputs": [],
      "stateMutability": "payable",
      "type": "function"
    },
    {
      "inputs": [],
      "name": "enterClaimsMode",
      "outputs": [],
      "stateMutability": "nonpayable",
      "type": "function"
    },
    {
      "inputs": [
        {
          "internalType": "uint256",
          "name": "",
          "type": "uint256"
        }
      ],
      "name": "entries",
      "outputs": [
        {
          "internalType": "address",
          "name": "addr",
          "type": "address"
        },
        {
          "internalType": "uint256",
          "name": "start",
          "type": "uint256"
        },
        {
          "internalType": "uint256",
          "name": "end",
          "type": "uint256"
        }
      ],
      "stateMutability": "view",
      "type": "function"
    },
    {
      "inputs": [
        {
          "internalType": "address",
          "name": "addr",
          "type": "address"
        }
      ],
      "name": "getAmountDeposited",
      "outputs": [
        {
          "internalType": "uint256",
          "name": "amount",
          "type": "uint256"
        }
      ],
      "stateMutability": "view",
      "type": "function"
    },
    {
      "inputs": [
        {
          "internalType": "address",
          "name": "addr",
          "type": "address"
        }
      ],
      "name": "getClaimAmount",
      "outputs": [
        {
          "internalType": "uint256",
          "name": "claimableAmount",
          "type": "uint256"
        }
      ],
      "stateMutability": "view",
      "type": "function"
    },
    {
      "inputs": [],
      "name": "getNumEntries",
      "outputs": [
        {
          "internalType": "uint256",
          "name": "num",
          "type": "uint256"
        }
      ],
      "stateMutability": "view",
      "type": "function"
    },
    {
      "inputs": [
        {
          "internalType": "address",
          "name": "addr",
          "type": "address"
        }
      ],
      "name": "getPointsForAddress",
      "outputs": [
        {
          "internalType": "uint256",
          "name": "points",
          "type": "uint256"
        }
      ],
      "stateMutability": "view",
      "type": "function"
    },
    {
      "inputs": [
        {
          "internalType": "address",
          "name": "addr",
          "type": "address"
        }
      ],
      "name": "getReferrer",
      "outputs": [
        {
          "internalType": "address",
          "name": "referrer",
          "type": "address"
        }
      ],
      "stateMutability": "view",
      "type": "function"
    },
    {
      "inputs": [],
      "name": "inClaimsMode",
      "outputs": [
        {
          "internalType": "bool",
          "name": "",
          "type": "bool"
        }
      ],
      "stateMutability": "view",
      "type": "function"
    },
    {
      "inputs": [],
      "name": "owner",
      "outputs": [
        {
          "internalType": "address",
          "name": "",
          "type": "address"
        }
      ],
      "stateMutability": "view",
      "type": "function"
    },
    {
      "inputs": [],
      "name": "ownerPurchased",
      "outputs": [
        {
          "internalType": "bool",
          "name": "",
          "type": "bool"
        }
      ],
      "stateMutability": "view",
      "type": "function"
    },
    {
      "inputs": [],
      "name": "pointsCalculator",
      "outputs": [
        {
          "internalType": "contract IPointsCalculator",
          "name": "",
          "type": "address"
        }
      ],
      "stateMutability": "view",
      "type": "function"
    },
    {
      "inputs": [],
      "name": "postPunkPurchasesBalance",
      "outputs": [
        {
          "internalType": "uint256",
          "name": "",
          "type": "uint256"
        }
      ],
      "stateMutability": "view",
      "type": "function"
    },
    {
      "inputs": [],
      "name": "punksContract",
      "outputs": [
        {
          "internalType": "contract IPunkContract",
          "name": "",
          "type": "address"
        }
      ],
      "stateMutability": "view",
      "type": "function"
    },
    {
      "inputs": [],
      "name": "purchaseDeadline",
      "outputs": [
        {
          "internalType": "uint256",
          "name": "",
          "type": "uint256"
        }
      ],
      "stateMutability": "view",
      "type": "function"
    },
    {
      "inputs": [],
      "name": "renounceOwnership",
      "outputs": [],
      "stateMutability": "nonpayable",
      "type": "function"
    },
    {
      "inputs": [],
      "name": "selectWinner",
      "outputs": [],
      "stateMutability": "nonpayable",
      "type": "function"
    },
    {
      "inputs": [
        {
          "internalType": "address",
          "name": "addr",
          "type": "address"
        }
      ],
      "name": "setEntryCalculator",
      "outputs": [],
      "stateMutability": "nonpayable",
      "type": "function"
    },
    {
      "inputs": [
        {
          "internalType": "address",
          "name": "addr",
          "type": "address"
        }
      ],
      "name": "setPunksContract",
      "outputs": [],
      "stateMutability": "nonpayable",
      "type": "function"
    },
    {
      "inputs": [
        {
          "internalType": "uint256",
          "name": "_targetBalance",
          "type": "uint256"
        }
      ],
      "name": "setTargetBalance",
      "outputs": [],
      "stateMutability": "nonpayable",
      "type": "function"
    },
    {
      "inputs": [],
      "name": "targetBalance",
      "outputs": [
        {
          "internalType": "uint256",
          "name": "",
          "type": "uint256"
        }
      ],
      "stateMutability": "view",
      "type": "function"
    },
    {
      "inputs": [],
      "name": "totalDeposited",
      "outputs": [
        {
          "internalType": "uint256",
          "name": "",
          "type": "uint256"
        }
      ],
      "stateMutability": "view",
      "type": "function"
    },
    {
      "inputs": [],
      "name": "totalPoints",
      "outputs": [
        {
          "internalType": "uint256",
          "name": "",
          "type": "uint256"
        }
      ],
      "stateMutability": "view",
      "type": "function"
    },
    {
      "inputs": [
        {
          "internalType": "address",
          "name": "newOwner",
          "type": "address"
        }
      ],
      "name": "transferOwnership",
      "outputs": [],
      "stateMutability": "nonpayable",
      "type": "function"
    },
    {
      "inputs": [],
      "name": "winner",
      "outputs": [
        {
          "internalType": "address",
          "name": "",
          "type": "address"
        }
      ],
      "stateMutability": "view",
      "type": "function"
    },
    {
      "inputs": [],
      "name": "winnerPurchased",
      "outputs": [
        {
          "internalType": "bool",
          "name": "",
          "type": "bool"
        }
      ],
      "stateMutability": "view",
      "type": "function"
    },
    {
      "stateMutability": "payable",
      "type": "receive"
    }
  ],
  "bytecode": "0x60806040523480156200001157600080fd5b5062000032620000266200003860201b60201c565b6200004060201b60201c565b62000104565b600033905090565b60008060009054906101000a900473ffffffffffffffffffffffffffffffffffffffff169050816000806101000a81548173ffffffffffffffffffffffffffffffffffffffff021916908373ffffffffffffffffffffffffffffffffffffffff1602179055508173ffffffffffffffffffffffffffffffffffffffff168173ffffffffffffffffffffffffffffffffffffffff167f8be0079c531659141344cd1fd0a4f28419497f9722a3daafe3b4186f6b6457e060405160405180910390a35050565b61340d80620001146000396000f3fe6080604052600436106101e75760003560e01c80638335ed1a11610102578063dc8c7ebf11610095578063e6854e1611610064578063e6854e16146106a9578063f2fde38b146106e6578063f491c0021461070f578063ff50abdc14610738576101f6565b8063dc8c7ebf146105ed578063dde070e814610616578063dfbf53ae14610653578063e46317b51461067e576101f6565b8063a346bc57116100d1578063a346bc571461055f578063b30906d414610588578063b490c52b146105c7578063d0e30db0146105e3576101f6565b80638335ed1a146104b5578063847a856f146104cc5780638da5cb5b14610509578063998a193f14610534576101f6565b8063442813721161017a578063567142be11610149578063567142be1461041d5780635d6f2f79146104485780637122aa4714610473578063715018a61461049e576101f6565b806344281372146103615780634a9fefc71461039e5780634e71d92d146103db5780634f4c2056146103f2576101f6565b8063147b6704116101b6578063147b6704146102cb578063269a6e76146102f657806333a99e041461031f57806343cce08e14610336576101f6565b806302f81891146101fb57806309e2d1a6146102385780630c080198146102635780630ffca2e3146102a0576101f6565b366101f6576101f4610763565b005b600080fd5b34801561020757600080fd5b50610222600480360381019061021d9190612218565b610d0f565b60405161022f919061225e565b60405180910390f35b34801561024457600080fd5b5061024d610d58565b60405161025a919061225e565b60405180910390f35b34801561026f57600080fd5b5061028a60048036038101906102859190612218565b610d65565b604051610297919061225e565b60405180910390f35b3480156102ac57600080fd5b506102b5610dae565b6040516102c29190612294565b60405180910390f35b3480156102d757600080fd5b506102e0610dc1565b6040516102ed919061230e565b60405180910390f35b34801561030257600080fd5b5061031d60048036038101906103189190612218565b610de7565b005b34801561032b57600080fd5b50610334610e33565b005b34801561034257600080fd5b5061034b61112d565b604051610358919061225e565b60405180910390f35b34801561036d57600080fd5b5061038860048036038101906103839190612218565b611133565b6040516103959190612294565b60405180910390f35b3480156103aa57600080fd5b506103c560048036038101906103c09190612218565b611153565b6040516103d29190612338565b60405180910390f35b3480156103e757600080fd5b506103f06111bc565b005b3480156103fe57600080fd5b5061040761139c565b6040516104149190612294565b60405180910390f35b34801561042957600080fd5b506104326113af565b60405161043f919061225e565b60405180910390f35b34801561045457600080fd5b5061045d6113b5565b60405161046a919061225e565b60405180910390f35b34801561047f57600080fd5b506104886113bb565b604051610495919061225e565b60405180910390f35b3480156104aa57600080fd5b506104b36113c1565b005b3480156104c157600080fd5b506104ca6113d5565b005b3480156104d857600080fd5b506104f360048036038101906104ee9190612218565b61150b565b604051610500919061225e565b60405180910390f35b34801561051557600080fd5b5061051e611523565b60405161052b9190612338565b60405180910390f35b34801561054057600080fd5b5061054961154c565b6040516105569190612294565b60405180910390f35b34801561056b57600080fd5b5061058660048036038101906105819190612218565b61155f565b005b34801561059457600080fd5b506105af60048036038101906105aa919061237f565b6115ab565b6040516105be939291906123ac565b60405180910390f35b6105e160048036038101906105dc9190612218565b611605565b005b6105eb610763565b005b3480156105f957600080fd5b50610614600480360381019061060f91906123e3565b6118e1565b005b34801561062257600080fd5b5061063d60048036038101906106389190612218565b611d2a565b60405161064a919061225e565b60405180910390f35b34801561065f57600080fd5b50610668611f02565b6040516106759190612338565b60405180910390f35b34801561068a57600080fd5b50610693611f28565b6040516106a09190612444565b60405180910390f35b3480156106b557600080fd5b506106d060048036038101906106cb9190612218565b611f4e565b6040516106dd919061225e565b60405180910390f35b3480156106f257600080fd5b5061070d60048036038101906107089190612218565b611f66565b005b34801561071b57600080fd5b506107366004803603810190610731919061237f565b611fe9565b005b34801561074457600080fd5b5061074d612056565b60405161075a919061225e565b60405180910390f35b3273ffffffffffffffffffffffffffffffffffffffff163373ffffffffffffffffffffffffffffffffffffffff16146107d1576040517f08c379a00000000000000000000000000000000000000000000000000000000081526004016107c8906124bc565b60405180910390fd5b6107d9611523565b73ffffffffffffffffffffffffffffffffffffffff163373ffffffffffffffffffffffffffffffffffffffff1603610846576040517f08c379a000000000000000000000000000000000000000000000000000000000815260040161083d90612528565b60405180910390fd5b655af3107a4000341161088e576040517f08c379a000000000000000000000000000000000000000000000000000000000815260040161088590612594565b60405180910390fd5b600554344761089d91906125e3565b106108dd576040517f08c379a00000000000000000000000000000000000000000000000000000000081526004016108d490612663565b60405180910390fd5b600073ffffffffffffffffffffffffffffffffffffffff16600a60009054906101000a900473ffffffffffffffffffffffffffffffffffffffff1673ffffffffffffffffffffffffffffffffffffffff161461096e576040517f08c379a0000000000000000000000000000000000000000000000000000000008152600401610965906126cf565b60405180910390fd5b606080600160009054906101000a900473ffffffffffffffffffffffffffffffffffffffff1673ffffffffffffffffffffffffffffffffffffffff166309d9cad833346040518363ffffffff1660e01b81526004016109ce9291906126ef565b600060405180830381865afa1580156109eb573d6000803e3d6000fd5b505050506040513d6000823e3d601f19601f82011682018060405250810190610a14919061295e565b809250819350505060005b8251811015610c4957600073ffffffffffffffffffffffffffffffffffffffff16838281518110610a5357610a526129d6565b5b602002602001015173ffffffffffffffffffffffffffffffffffffffff160315610c495760006040518060600160405280858481518110610a9757610a966129d6565b5b602002602001015173ffffffffffffffffffffffffffffffffffffffff1681526020016003548152602001848481518110610ad557610ad46129d6565b5b6020026020010151600354610aea9190612a05565b8152509050600781908060018154018082558091505060019003906000526020600020906003020160009091909190915060008201518160000160006101000a81548173ffffffffffffffffffffffffffffffffffffffff021916908373ffffffffffffffffffffffffffffffffffffffff16021790555060208201518160010155604082015181600201555050828281518110610b8b57610b8a6129d6565b5b602002602001015160046000868581518110610baa57610ba96129d6565b5b602002602001015173ffffffffffffffffffffffffffffffffffffffff1673ffffffffffffffffffffffffffffffffffffffff1681526020019081526020016000206000828254610bfb9190612a05565b92505081905550828281518110610c1557610c146129d6565b5b602002602001015160036000828254610c2e9190612a05565b92505081905550508080610c4190612a39565b915050610a1f565b503460066000828254610c5c9190612a05565b9250508190555034600d6000828254610c759190612a05565b9250508190555034600860003373ffffffffffffffffffffffffffffffffffffffff1673ffffffffffffffffffffffffffffffffffffffff1681526020019081526020016000206000828254610ccb9190612a05565b925050819055507f2da466a7b24304f47e87fa2e1e5a81b9831ce54fec19055ce277ca2f39ba42c43334604051610d039291906126ef565b60405180910390a15050565b6000600460008373ffffffffffffffffffffffffffffffffffffffff1673ffffffffffffffffffffffffffffffffffffffff168152602001908152602001600020549050919050565b6000600780549050905090565b6000600860008373ffffffffffffffffffffffffffffffffffffffff1673ffffffffffffffffffffffffffffffffffffffff168152602001908152602001600020549050919050565b600c60009054906101000a900460ff1681565b600160009054906101000a900473ffffffffffffffffffffffffffffffffffffffff1681565b610def61205c565b80600260006101000a81548173ffffffffffffffffffffffffffffffffffffffff021916908373ffffffffffffffffffffffffffffffffffffffff16021790555050565b600554471015610e78576040517f08c379a0000000000000000000000000000000000000000000000000000000008152600401610e6f90612acd565b60405180910390fd5b600073ffffffffffffffffffffffffffffffffffffffff16600a60009054906101000a900473ffffffffffffffffffffffffffffffffffffffff1673ffffffffffffffffffffffffffffffffffffffff1614610f09576040517f08c379a0000000000000000000000000000000000000000000000000000000008152600401610f0090612b39565b60405180910390fd5b6000474244604051602001610f1f929190612b7a565b6040516020818303038152906040528051906020012060001c610f429190612bd5565b90506000806001600780549050610f5991906125e3565b90505b8082116110ba57600060028284610f739190612a05565b610f7d9190612c06565b9050600060078281548110610f9557610f946129d6565b5b90600052602060002090600302016040518060600160405290816000820160009054906101000a900473ffffffffffffffffffffffffffffffffffffffff1673ffffffffffffffffffffffffffffffffffffffff1673ffffffffffffffffffffffffffffffffffffffff16815260200160018201548152602001600282015481525050905080602001518510158015611032575080604001518511155b15611083578060000151600a60006101000a81548173ffffffffffffffffffffffffffffffffffffffff021916908373ffffffffffffffffffffffffffffffffffffffff16021790555050506110ba565b80602001518510156110a35760018261109c91906125e3565b92506110b3565b6001826110b09190612a05565b93505b5050610f5c565b62278d00426110c99190612a05565b600b819055507f1d4c260f1824cd028e6c9e6e31c3a0b94f2513e7a641113ec759d382f9bdd5a1600a60009054906101000a900473ffffffffffffffffffffffffffffffffffffffff166040516111209190612338565b60405180910390a1505050565b60055481565b60096020528060005260406000206000915054906101000a900460ff1681565b6000600f60008373ffffffffffffffffffffffffffffffffffffffff1673ffffffffffffffffffffffffffffffffffffffff16815260200190815260200160002060009054906101000a900473ffffffffffffffffffffffffffffffffffffffff169050919050565b600e60009054906101000a900460ff1661120b576040517f08c379a000000000000000000000000000000000000000000000000000000000815260040161120290612c83565b60405180910390fd5b600061121633611d2a565b90506000811161125b576040517f08c379a000000000000000000000000000000000000000000000000000000000815260040161125290612cef565b60405180910390fd5b6001600960003373ffffffffffffffffffffffffffffffffffffffff1673ffffffffffffffffffffffffffffffffffffffff16815260200190815260200160002060006101000a81548160ff02191690831515021790555060003373ffffffffffffffffffffffffffffffffffffffff16826040516112d990612d40565b60006040518083038185875af1925050503d8060008114611316576040519150601f19603f3d011682016040523d82523d6000602084013e61131b565b606091505b505090508061135f576040517f08c379a000000000000000000000000000000000000000000000000000000000815260040161135690612da1565b60405180910390fd5b7f0d7976053781e071cecf47e898ad2a6dc87621ca33734e96eb4b92453319e8c933836040516113909291906126ef565b60405180910390a15050565b600c60019054906101000a900460ff1681565b60035481565b600b5481565b600d5481565b6113c961205c565b6113d360006120da565b565b6113dd611523565b73ffffffffffffffffffffffffffffffffffffffff163373ffffffffffffffffffffffffffffffffffffffff161480156114655750600073ffffffffffffffffffffffffffffffffffffffff16600a60009054906101000a900473ffffffffffffffffffffffffffffffffffffffff1673ffffffffffffffffffffffffffffffffffffffff16145b806114945750600c60009054906101000a900460ff1680156114935750600c60019054906101000a900460ff165b5b806114af57506000600b54141580156114ae5750600b5442115b5b6114ee576040517f08c379a00000000000000000000000000000000000000000000000000000000081526004016114e590612e33565b60405180910390fd5b6001600e60006101000a81548160ff021916908315150217905550565b60046020528060005260406000206000915090505481565b60008060009054906101000a900473ffffffffffffffffffffffffffffffffffffffff16905090565b600e60009054906101000a900460ff1681565b61156761205c565b80600160006101000a81548173ffffffffffffffffffffffffffffffffffffffff021916908373ffffffffffffffffffffffffffffffffffffffff16021790555050565b600781815481106115bb57600080fd5b90600052602060002090600302016000915090508060000160009054906101000a900473ffffffffffffffffffffffffffffffffffffffff16908060010154908060020154905083565b600073ffffffffffffffffffffffffffffffffffffffff16600f60003373ffffffffffffffffffffffffffffffffffffffff1673ffffffffffffffffffffffffffffffffffffffff16815260200190815260200160002060009054906101000a900473ffffffffffffffffffffffffffffffffffffffff1673ffffffffffffffffffffffffffffffffffffffff16148061172957508073ffffffffffffffffffffffffffffffffffffffff16600f60003373ffffffffffffffffffffffffffffffffffffffff1673ffffffffffffffffffffffffffffffffffffffff16815260200190815260200160002060009054906101000a900473ffffffffffffffffffffffffffffffffffffffff1673ffffffffffffffffffffffffffffffffffffffff16145b611768576040517f08c379a000000000000000000000000000000000000000000000000000000000815260040161175f90612eeb565b60405180910390fd5b8073ffffffffffffffffffffffffffffffffffffffff163373ffffffffffffffffffffffffffffffffffffffff16036117d6576040517f08c379a00000000000000000000000000000000000000000000000000000000081526004016117cd90612f57565b60405180910390fd5b6000600860008373ffffffffffffffffffffffffffffffffffffffff1673ffffffffffffffffffffffffffffffffffffffff1681526020019081526020016000205411611858576040517f08c379a000000000000000000000000000000000000000000000000000000000815260040161184f90612fe9565b60405180910390fd5b80600f60003373ffffffffffffffffffffffffffffffffffffffff1673ffffffffffffffffffffffffffffffffffffffff16815260200190815260200160002060006101000a81548173ffffffffffffffffffffffffffffffffffffffff021916908373ffffffffffffffffffffffffffffffffffffffff1602179055506118de610763565b50565b6118e9611523565b73ffffffffffffffffffffffffffffffffffffffff163373ffffffffffffffffffffffffffffffffffffffff160361197057600c60009054906101000a900460ff161561196b576040517f08c379a00000000000000000000000000000000000000000000000000000000081526004016119629061307b565b60405180910390fd5b611a56565b600a60009054906101000a900473ffffffffffffffffffffffffffffffffffffffff1673ffffffffffffffffffffffffffffffffffffffff163373ffffffffffffffffffffffffffffffffffffffff1603611a1a57600c60019054906101000a900460ff1615611a15576040517f08c379a0000000000000000000000000000000000000000000000000000000008152600401611a0c9061310d565b60405180910390fd5b611a55565b6040517f08c379a0000000000000000000000000000000000000000000000000000000008152600401611a4c9061319f565b60405180910390fd5b5b600b544210611a9a576040517f08c379a0000000000000000000000000000000000000000000000000000000008152600401611a919061320b565b60405180910390fd5b6002600654611aa99190612c06565b811115611aeb576040517f08c379a0000000000000000000000000000000000000000000000000000000008152600401611ae290613277565b60405180910390fd5b600260009054906101000a900473ffffffffffffffffffffffffffffffffffffffff1673ffffffffffffffffffffffffffffffffffffffff16638264fe9882846040518363ffffffff1660e01b8152600401611b47919061225e565b6000604051808303818588803b158015611b6057600080fd5b505af1158015611b74573d6000803e3d6000fd5b5050505050600260009054906101000a900473ffffffffffffffffffffffffffffffffffffffff1673ffffffffffffffffffffffffffffffffffffffff16638b72a2ec33846040518363ffffffff1660e01b8152600401611bd69291906126ef565b600060405180830381600087803b158015611bf057600080fd5b505af1158015611c04573d6000803e3d6000fd5b5050505080600d6000828254611c1a91906125e3565b92505081905550611c29611523565b73ffffffffffffffffffffffffffffffffffffffff163373ffffffffffffffffffffffffffffffffffffffff1603611c7b576001600c60006101000a81548160ff021916908315150217905550611ced565b600a60009054906101000a900473ffffffffffffffffffffffffffffffffffffffff1673ffffffffffffffffffffffffffffffffffffffff163373ffffffffffffffffffffffffffffffffffffffff1603611cec576001600c60016101000a81548160ff0219169083151502179055505b5b7f40e80efb7d12c5f2a96c5f323f3591024f16e479f7919bef0d73eadd9d30656b3383604051611d1e9291906126ef565b60405180910390a15050565b6000600e60009054906101000a900460ff16611d7b576040517f08c379a0000000000000000000000000000000000000000000000000000000008152600401611d7290612c83565b60405180910390fd5b600a60009054906101000a900473ffffffffffffffffffffffffffffffffffffffff1673ffffffffffffffffffffffffffffffffffffffff168273ffffffffffffffffffffffffffffffffffffffff1603611dd95760009050611efd565b600960008373ffffffffffffffffffffffffffffffffffffffff1673ffffffffffffffffffffffffffffffffffffffff16815260200190815260200160002060009054906101000a900460ff1615611e345760009050611efd565b60086000600a60009054906101000a900473ffffffffffffffffffffffffffffffffffffffff1673ffffffffffffffffffffffffffffffffffffffff1673ffffffffffffffffffffffffffffffffffffffff16815260200190815260200160002054600654611ea391906125e3565b600860008473ffffffffffffffffffffffffffffffffffffffff1673ffffffffffffffffffffffffffffffffffffffff16815260200190815260200160002054600d54611ef09190613297565b611efa9190612c06565b90505b919050565b600a60009054906101000a900473ffffffffffffffffffffffffffffffffffffffff1681565b600260009054906101000a900473ffffffffffffffffffffffffffffffffffffffff1681565b60086020528060005260406000206000915090505481565b611f6e61205c565b600073ffffffffffffffffffffffffffffffffffffffff168173ffffffffffffffffffffffffffffffffffffffff1603611fdd576040517f08c379a0000000000000000000000000000000000000000000000000000000008152600401611fd49061334b565b60405180910390fd5b611fe6816120da565b50565b611ff161205c565b600073ffffffffffffffffffffffffffffffffffffffff16600a60009054906101000a900473ffffffffffffffffffffffffffffffffffffffff1673ffffffffffffffffffffffffffffffffffffffff161461204c57600080fd5b8060058190555050565b60065481565b61206461219e565b73ffffffffffffffffffffffffffffffffffffffff16612082611523565b73ffffffffffffffffffffffffffffffffffffffff16146120d8576040517f08c379a00000000000000000000000000000000000000000000000000000000081526004016120cf906133b7565b60405180910390fd5b565b60008060009054906101000a900473ffffffffffffffffffffffffffffffffffffffff169050816000806101000a81548173ffffffffffffffffffffffffffffffffffffffff021916908373ffffffffffffffffffffffffffffffffffffffff1602179055508173ffffffffffffffffffffffffffffffffffffffff168173ffffffffffffffffffffffffffffffffffffffff167f8be0079c531659141344cd1fd0a4f28419497f9722a3daafe3b4186f6b6457e060405160405180910390a35050565b600033905090565b6000604051905090565b600080fd5b600080fd5b600073ffffffffffffffffffffffffffffffffffffffff82169050919050565b60006121e5826121ba565b9050919050565b6121f5816121da565b811461220057600080fd5b50565b600081359050612212816121ec565b92915050565b60006020828403121561222e5761222d6121b0565b5b600061223c84828501612203565b91505092915050565b6000819050919050565b61225881612245565b82525050565b6000602082019050612273600083018461224f565b92915050565b60008115159050919050565b61228e81612279565b82525050565b60006020820190506122a96000830184612285565b92915050565b6000819050919050565b60006122d46122cf6122ca846121ba565b6122af565b6121ba565b9050919050565b60006122e6826122b9565b9050919050565b60006122f8826122db565b9050919050565b612308816122ed565b82525050565b600060208201905061232360008301846122ff565b92915050565b612332816121da565b82525050565b600060208201905061234d6000830184612329565b92915050565b61235c81612245565b811461236757600080fd5b50565b60008135905061237981612353565b92915050565b600060208284031215612395576123946121b0565b5b60006123a38482850161236a565b91505092915050565b60006060820190506123c16000830186612329565b6123ce602083018561224f565b6123db604083018461224f565b949350505050565b600080604083850312156123fa576123f96121b0565b5b60006124088582860161236a565b92505060206124198582860161236a565b9150509250929050565b600061242e826122db565b9050919050565b61243e81612423565b82525050565b60006020820190506124596000830184612435565b92915050565b600082825260208201905092915050565b7f4f6e6c7920454f41730000000000000000000000000000000000000000000000600082015250565b60006124a660098361245f565b91506124b182612470565b602082019050919050565b600060208201905081810360008301526124d581612499565b9050919050565b7f4e6f20646f75626c652064697070696e67210000000000000000000000000000600082015250565b600061251260128361245f565b915061251d826124dc565b602082019050919050565b6000602082019050818103600083015261254181612505565b9050919050565b7f446f6e2774206265206368656170210000000000000000000000000000000000600082015250565b600061257e600f8361245f565b915061258982612548565b602082019050919050565b600060208201905081810360008301526125ad81612571565b9050919050565b7f4e487b7100000000000000000000000000000000000000000000000000000000600052601160045260246000fd5b60006125ee82612245565b91506125f983612245565b9250828203905081811115612611576126106125b4565b5b92915050565b7f54617267657420616c7265616479206d65740000000000000000000000000000600082015250565b600061264d60128361245f565b915061265882612617565b602082019050919050565b6000602082019050818103600083015261267c81612640565b9050919050565b7f57696e6e657220616c72656164792073656c6563746564000000000000000000600082015250565b60006126b960178361245f565b91506126c482612683565b602082019050919050565b600060208201905081810360008301526126e8816126ac565b9050919050565b60006040820190506127046000830185612329565b612711602083018461224f565b9392505050565b600080fd5b6000601f19601f8301169050919050565b7f4e487b7100000000000000000000000000000000000000000000000000000000600052604160045260246000fd5b6127668261271d565b810181811067ffffffffffffffff821117156127855761278461272e565b5b80604052505050565b60006127986121a6565b90506127a4828261275d565b919050565b600067ffffffffffffffff8211156127c4576127c361272e565b5b602082029050602081019050919050565b600080fd5b6000815190506127e9816121ec565b92915050565b60006128026127fd846127a9565b61278e565b90508083825260208201905060208402830185811115612825576128246127d5565b5b835b8181101561284e578061283a88826127da565b845260208401935050602081019050612827565b5050509392505050565b600082601f83011261286d5761286c612718565b5b815161287d8482602086016127ef565b91505092915050565b600067ffffffffffffffff8211156128a1576128a061272e565b5b602082029050602081019050919050565b6000815190506128c181612353565b92915050565b60006128da6128d584612886565b61278e565b905080838252602082019050602084028301858111156128fd576128fc6127d5565b5b835b81811015612926578061291288826128b2565b8452602084019350506020810190506128ff565b5050509392505050565b600082601f83011261294557612944612718565b5b81516129558482602086016128c7565b91505092915050565b60008060408385031215612975576129746121b0565b5b600083015167ffffffffffffffff811115612993576129926121b5565b5b61299f85828601612858565b925050602083015167ffffffffffffffff8111156129c0576129bf6121b5565b5b6129cc85828601612930565b9150509250929050565b7f4e487b7100000000000000000000000000000000000000000000000000000000600052603260045260246000fd5b6000612a1082612245565b9150612a1b83612245565b9250828201905080821115612a3357612a326125b4565b5b92915050565b6000612a4482612245565b91507fffffffffffffffffffffffffffffffffffffffffffffffffffffffffffffffff8203612a7657612a756125b4565b5b600182019050919050565b7f546172676574206e6f7420796574207265616368656400000000000000000000600082015250565b6000612ab760168361245f565b9150612ac282612a81565b602082019050919050565b60006020820190508181036000830152612ae681612aaa565b9050919050565b7f57696e6e65722068617320616c7265616479206265656e2073656c6563746564600082015250565b6000612b2360208361245f565b9150612b2e82612aed565b602082019050919050565b60006020820190508181036000830152612b5281612b16565b9050919050565b6000819050919050565b612b74612b6f82612245565b612b59565b82525050565b6000612b868285612b63565b602082019150612b968284612b63565b6020820191508190509392505050565b7f4e487b7100000000000000000000000000000000000000000000000000000000600052601260045260246000fd5b6000612be082612245565b9150612beb83612245565b925082612bfb57612bfa612ba6565b5b828206905092915050565b6000612c1182612245565b9150612c1c83612245565b925082612c2c57612c2b612ba6565b5b828204905092915050565b7f4e6f7420696e20636c61696d73206d6f64650000000000000000000000000000600082015250565b6000612c6d60128361245f565b9150612c7882612c37565b602082019050919050565b60006020820190508181036000830152612c9c81612c60565b9050919050565b7f4e6f7468696e6720746f20636c61696d00000000000000000000000000000000600082015250565b6000612cd960108361245f565b9150612ce482612ca3565b602082019050919050565b60006020820190508181036000830152612d0881612ccc565b9050919050565b600081905092915050565b50565b6000612d2a600083612d0f565b9150612d3582612d1a565b600082019050919050565b6000612d4b82612d1d565b9150819050919050565b7f4661696c656420746f20636c61696d0000000000000000000000000000000000600082015250565b6000612d8b600f8361245f565b9150612d9682612d55565b602082019050919050565b60006020820190508181036000830152612dba81612d7e565b9050919050565b7f436c61696d73206d6f64652063616e6e6f74206265207374617274656420796560008201527f7400000000000000000000000000000000000000000000000000000000000000602082015250565b6000612e1d60218361245f565b9150612e2882612dc1565b604082019050919050565b60006020820190508181036000830152612e4c81612e10565b9050919050565b7f53746f72616765207265666572726572206d75737420626520756e736574206f60008201527f72206265207468652073616d652072656665727265722070726576696f75736c60208201527f7920757365640000000000000000000000000000000000000000000000000000604082015250565b6000612ed560468361245f565b9150612ee082612e53565b606082019050919050565b60006020820190508181036000830152612f0481612ec8565b9050919050565b7f43616e6e6f7420726566657220796f757273656c660000000000000000000000600082015250565b6000612f4160158361245f565b9150612f4c82612f0b565b602082019050919050565b60006020820190508181036000830152612f7081612f34565b9050919050565b7f7265666572726572206d75737420686176652070726576696f75736c7920646560008201527f706f73697465642066756e647300000000000000000000000000000000000000602082015250565b6000612fd3602d8361245f565b9150612fde82612f77565b604082019050919050565b6000602082019050818103600083015261300281612fc6565b9050919050565b7f4f776e65722068617320616c726561647920707572636861736564206120707560008201527f6e6b000000000000000000000000000000000000000000000000000000000000602082015250565b600061306560228361245f565b915061307082613009565b604082019050919050565b6000602082019050818103600083015261309481613058565b9050919050565b7f57696e6e65722068617320616c7265616479207075726368617365642061207060008201527f756e6b0000000000000000000000000000000000000000000000000000000000602082015250565b60006130f760238361245f565b91506131028261309b565b604082019050919050565b60006020820190508181036000830152613126816130ea565b9050919050565b7f4f6e6c7920746865206f776e657220616e64207468652077696e6e657220636160008201527f6e2063616c6c20746869732066756e6374696f6e000000000000000000000000602082015250565b600061318960348361245f565b91506131948261312d565b604082019050919050565b600060208201905081810360008301526131b88161317c565b9050919050565b7f646561646c696e65206861732070617373656400000000000000000000000000600082015250565b60006131f560138361245f565b9150613200826131bf565b602082019050919050565b60006020820190508181036000830152613224816131e8565b9050919050565b7f616d6f756e742065786365656473206275646765740000000000000000000000600082015250565b600061326160158361245f565b915061326c8261322b565b602082019050919050565b6000602082019050818103600083015261329081613254565b9050919050565b60006132a282612245565b91506132ad83612245565b92508282026132bb81612245565b915082820484148315176132d2576132d16125b4565b5b5092915050565b7f4f776e61626c653a206e6577206f776e657220697320746865207a65726f206160008201527f6464726573730000000000000000000000000000000000000000000000000000602082015250565b600061333560268361245f565b9150613340826132d9565b604082019050919050565b6000602082019050818103600083015261336481613328565b9050919050565b7f4f776e61626c653a2063616c6c6572206973206e6f7420746865206f776e6572600082015250565b60006133a160208361245f565b91506133ac8261336b565b602082019050919050565b600060208201905081810360008301526133d081613394565b905091905056fea2646970667358221220f093dd99c63b30708868067f3c69a416ff67779ba950441d366e25abd82c745064736f6c63430008130033",
  "linkReferences": {},
  "deployedLinkReferences": {}
}